{
  "_format": "hh-sol-artifact-1",
  "contractName": "CloudaxNFT",
  "sourceName": "contracts/CloudaxNFT.sol",
  "abi": [
    {
      "anonymous": false,
      "inputs": [
        {
          "indexed": false,
          "internalType": "address",
          "name": "previousAdmin",
          "type": "address"
        },
        {
          "indexed": false,
          "internalType": "address",
          "name": "newAdmin",
          "type": "address"
        }
      ],
      "name": "AdminChanged",
      "type": "event"
    },
    {
      "anonymous": false,
      "inputs": [
        {
          "indexed": true,
          "internalType": "address",
          "name": "owner",
          "type": "address"
        },
        {
          "indexed": true,
          "internalType": "address",
          "name": "approved",
          "type": "address"
        },
        {
          "indexed": true,
          "internalType": "uint256",
          "name": "tokenId",
          "type": "uint256"
        }
      ],
      "name": "Approval",
      "type": "event"
    },
    {
      "anonymous": false,
      "inputs": [
        {
          "indexed": true,
          "internalType": "address",
          "name": "owner",
          "type": "address"
        },
        {
          "indexed": true,
          "internalType": "address",
          "name": "operator",
          "type": "address"
        },
        {
          "indexed": false,
          "internalType": "bool",
          "name": "approved",
          "type": "bool"
        }
      ],
      "name": "ApprovalForAll",
      "type": "event"
    },
    {
      "anonymous": false,
      "inputs": [
        {
          "indexed": true,
          "internalType": "address",
          "name": "beacon",
          "type": "address"
        }
      ],
      "name": "BeaconUpgraded",
      "type": "event"
    },
    {
      "anonymous": false,
      "inputs": [
        {
          "indexed": false,
          "internalType": "uint8",
          "name": "version",
          "type": "uint8"
        }
      ],
      "name": "Initialized",
      "type": "event"
    },
    {
      "anonymous": false,
      "inputs": [
        {
          "indexed": true,
          "internalType": "address",
          "name": "previousOwner",
          "type": "address"
        },
        {
          "indexed": true,
          "internalType": "address",
          "name": "newOwner",
          "type": "address"
        }
      ],
      "name": "OwnershipTransferred",
      "type": "event"
    },
    {
      "anonymous": false,
      "inputs": [
        {
          "indexed": true,
          "internalType": "address",
          "name": "from",
          "type": "address"
        },
        {
          "indexed": true,
          "internalType": "address",
          "name": "to",
          "type": "address"
        },
        {
          "indexed": true,
          "internalType": "uint256",
          "name": "tokenId",
          "type": "uint256"
        }
      ],
      "name": "Transfer",
      "type": "event"
    },
    {
      "anonymous": false,
      "inputs": [
        {
          "indexed": true,
          "internalType": "address",
          "name": "implementation",
          "type": "address"
        }
      ],
      "name": "Upgraded",
      "type": "event"
    },
    {
      "inputs": [
        {
          "internalType": "address",
          "name": "to",
          "type": "address"
        },
        {
          "internalType": "uint256",
          "name": "tokenId",
          "type": "uint256"
        }
      ],
      "name": "approve",
      "outputs": [],
      "stateMutability": "nonpayable",
      "type": "function"
    },
    {
      "inputs": [
        {
          "internalType": "address",
          "name": "owner",
          "type": "address"
        }
      ],
      "name": "balanceOf",
      "outputs": [
        {
          "internalType": "uint256",
          "name": "",
          "type": "uint256"
        }
      ],
      "stateMutability": "view",
      "type": "function"
    },
    {
      "inputs": [],
      "name": "contractURI",
      "outputs": [
        {
          "internalType": "string",
          "name": "",
          "type": "string"
        }
      ],
      "stateMutability": "view",
      "type": "function"
    },
    {
      "inputs": [
        {
          "internalType": "uint256",
          "name": "tokenId",
          "type": "uint256"
        }
      ],
      "name": "getApproved",
      "outputs": [
        {
          "internalType": "address",
          "name": "",
          "type": "address"
        }
      ],
      "stateMutability": "view",
      "type": "function"
    },
    {
      "inputs": [
        {
          "internalType": "address",
          "name": "_owner",
          "type": "address"
        },
        {
          "internalType": "string",
          "name": "_name",
          "type": "string"
        },
        {
          "internalType": "string",
          "name": "_symbol",
          "type": "string"
        },
        {
          "internalType": "string",
          "name": "_contractBaseURI",
          "type": "string"
        }
      ],
      "name": "initialize",
      "outputs": [],
      "stateMutability": "nonpayable",
      "type": "function"
    },
    {
      "inputs": [
        {
          "internalType": "address",
          "name": "owner",
          "type": "address"
        },
        {
          "internalType": "address",
          "name": "operator",
          "type": "address"
        }
      ],
      "name": "isApprovedForAll",
      "outputs": [
        {
          "internalType": "bool",
          "name": "",
          "type": "bool"
        }
      ],
      "stateMutability": "view",
      "type": "function"
    },
    {
      "inputs": [],
      "name": "name",
      "outputs": [
        {
          "internalType": "string",
          "name": "",
          "type": "string"
        }
      ],
      "stateMutability": "view",
      "type": "function"
    },
    {
      "inputs": [],
      "name": "owner",
      "outputs": [
        {
          "internalType": "address",
          "name": "",
          "type": "address"
        }
      ],
      "stateMutability": "view",
      "type": "function"
    },
    {
      "inputs": [
        {
          "internalType": "uint256",
          "name": "tokenId",
          "type": "uint256"
        }
      ],
      "name": "ownerOf",
      "outputs": [
        {
          "internalType": "address",
          "name": "",
          "type": "address"
        }
      ],
      "stateMutability": "view",
      "type": "function"
    },
    {
      "inputs": [],
      "name": "proxiableUUID",
      "outputs": [
        {
          "internalType": "bytes32",
          "name": "",
          "type": "bytes32"
        }
      ],
      "stateMutability": "view",
      "type": "function"
    },
    {
      "inputs": [],
      "name": "renounceOwnership",
      "outputs": [],
      "stateMutability": "nonpayable",
      "type": "function"
    },
    {
      "inputs": [
        {
          "internalType": "address",
          "name": "from",
          "type": "address"
        },
        {
          "internalType": "address",
          "name": "to",
          "type": "address"
        },
        {
          "internalType": "uint256",
          "name": "tokenId",
          "type": "uint256"
        }
      ],
      "name": "safeTransferFrom",
      "outputs": [],
      "stateMutability": "nonpayable",
      "type": "function"
    },
    {
      "inputs": [
        {
          "internalType": "address",
          "name": "from",
          "type": "address"
        },
        {
          "internalType": "address",
          "name": "to",
          "type": "address"
        },
        {
          "internalType": "uint256",
          "name": "tokenId",
          "type": "uint256"
        },
        {
          "internalType": "bytes",
          "name": "data",
          "type": "bytes"
        }
      ],
      "name": "safeTransferFrom",
      "outputs": [],
      "stateMutability": "nonpayable",
      "type": "function"
    },
    {
      "inputs": [
        {
          "internalType": "address",
          "name": "operator",
          "type": "address"
        },
        {
          "internalType": "bool",
          "name": "approved",
          "type": "bool"
        }
      ],
      "name": "setApprovalForAll",
      "outputs": [],
      "stateMutability": "nonpayable",
      "type": "function"
    },
    {
      "inputs": [
        {
          "internalType": "bytes4",
          "name": "interfaceId",
          "type": "bytes4"
        }
      ],
      "name": "supportsInterface",
      "outputs": [
        {
          "internalType": "bool",
          "name": "",
          "type": "bool"
        }
      ],
      "stateMutability": "view",
      "type": "function"
    },
    {
      "inputs": [],
      "name": "symbol",
      "outputs": [
        {
          "internalType": "string",
          "name": "",
          "type": "string"
        }
      ],
      "stateMutability": "view",
      "type": "function"
    },
    {
      "inputs": [
        {
          "internalType": "uint256",
          "name": "tokenId",
          "type": "uint256"
        }
      ],
      "name": "tokenURI",
      "outputs": [
        {
          "internalType": "string",
          "name": "",
          "type": "string"
        }
      ],
      "stateMutability": "view",
      "type": "function"
    },
    {
      "inputs": [
        {
          "internalType": "address",
          "name": "from",
          "type": "address"
        },
        {
          "internalType": "address",
          "name": "to",
          "type": "address"
        },
        {
          "internalType": "uint256",
          "name": "tokenId",
          "type": "uint256"
        }
      ],
      "name": "transferFrom",
      "outputs": [],
      "stateMutability": "nonpayable",
      "type": "function"
    },
    {
      "inputs": [
        {
          "internalType": "address",
          "name": "newOwner",
          "type": "address"
        }
      ],
      "name": "transferOwnership",
      "outputs": [],
      "stateMutability": "nonpayable",
      "type": "function"
    },
    {
      "inputs": [
        {
          "internalType": "address",
          "name": "newImplementation",
          "type": "address"
        }
      ],
      "name": "upgradeTo",
      "outputs": [],
      "stateMutability": "nonpayable",
      "type": "function"
    },
    {
      "inputs": [
        {
          "internalType": "address",
          "name": "newImplementation",
          "type": "address"
        },
        {
          "internalType": "bytes",
          "name": "data",
          "type": "bytes"
        }
      ],
      "name": "upgradeToAndCall",
      "outputs": [],
      "stateMutability": "payable",
      "type": "function"
    }
  ],
  "bytecode": "0x60a06040523060805234801561001457600080fd5b506080516125f261004c600039600081816106b8015281816106f8015281816107c50152818161080501526108aa01526125f26000f3fe60806040526004361061016a5760003560e01c80636352211e116100cb578063a22cb4651161007f578063e8a3d48511610059578063e8a3d485146103b3578063e985e9c5146103c8578063f2fde38b1461041157600080fd5b8063a22cb46514610353578063b88d4fde14610373578063c87b56dd1461039357600080fd5b8063715018a6116100b0578063715018a61461030b5780638da5cb5b1461032057806395d89b411461033e57600080fd5b80636352211e146102cb57806370a08231146102eb57600080fd5b80633659cfe6116101225780634f1ef286116101075780634f1ef2861461027657806352d1902d146102895780635f1e6f6d146102ab57600080fd5b80633659cfe61461023657806342842e0e1461025657600080fd5b8063081812fc11610153578063081812fc146101c7578063095ea7b3146101f457806323b872dd1461021657600080fd5b806301ffc9a71461016f57806306fdde03146101a5575b600080fd5b34801561017b57600080fd5b5061018f61018a366004611694565b610431565b60405161019c91906116bf565b60405180910390f35b3480156101b157600080fd5b506101ba610516565b60405161019c919061172b565b3480156101d357600080fd5b506101e76101e236600461174d565b6105a8565b60405161019c9190611788565b34801561020057600080fd5b5061021461020f3660046117aa565b6105cf565b005b34801561022257600080fd5b506102146102313660046117e7565b61067c565b34801561024257600080fd5b50610214610251366004611837565b6106ad565b34801561026257600080fd5b506102146102713660046117e7565b61079f565b610214610284366004611953565b6107ba565b34801561029557600080fd5b5061029e61089d565b60405161019c91906119a7565b3480156102b757600080fd5b506102146102c63660046119b5565b61090c565b3480156102d757600080fd5b506101e76102e636600461174d565b610a0f565b3480156102f757600080fd5b5061029e610306366004611837565b610a44565b34801561031757600080fd5b50610214610a88565b34801561032c57600080fd5b506097546001600160a01b03166101e7565b34801561034a57600080fd5b506101ba610a9c565b34801561035f57600080fd5b5061021461036e366004611a7d565b610aab565b34801561037f57600080fd5b5061021461038e366004611ab0565b610ab6565b34801561039f57600080fd5b506101ba6103ae36600461174d565b610aee565b3480156103bf57600080fd5b506101ba610b62565b3480156103d457600080fd5b5061018f6103e3366004611af7565b6001600160a01b039182166000908152606a6020908152604080832093909416825291909152205460ff1690565b34801561041d57600080fd5b5061021461042c366004611837565b610b8b565b60007fffffffff0000000000000000000000000000000000000000000000000000000082167f80ac58cd0000000000000000000000000000000000000000000000000000000014806104c457507fffffffff0000000000000000000000000000000000000000000000000000000082167f5b5e139f00000000000000000000000000000000000000000000000000000000145b8061051057507f01ffc9a7000000000000000000000000000000000000000000000000000000007fffffffff000000000000000000000000000000000000000000000000000000008316145b92915050565b60606065805461052590611b40565b80601f016020809104026020016040519081016040528092919081815260200182805461055190611b40565b801561059e5780601f106105735761010080835404028352916020019161059e565b820191906000526020600020905b81548152906001019060200180831161058157829003601f168201915b5050505050905090565b60006105b382610bc2565b506000908152606960205260409020546001600160a01b031690565b60006105da82610a0f565b9050806001600160a01b0316836001600160a01b031614156106175760405162461bcd60e51b815260040161060e90611bc7565b60405180910390fd5b336001600160a01b038216148061065157506001600160a01b0381166000908152606a6020908152604080832033845290915290205460ff165b61066d5760405162461bcd60e51b815260040161060e90611c2f565b6106778383610bf6565b505050565b6106863382610c71565b6106a25760405162461bcd60e51b815260040161060e90611c97565b610677838383610cf0565b306001600160a01b037f00000000000000000000000000000000000000000000000000000000000000001614156106f65760405162461bcd60e51b815260040161060e90611cff565b7f00000000000000000000000000000000000000000000000000000000000000006001600160a01b03166107517f360894a13ba1a3210667c828492db98dca3e2076cc3735a920a3ca505d382bbc546001600160a01b031690565b6001600160a01b0316146107775760405162461bcd60e51b815260040161060e90611d67565b61078081610e1f565b6040805160008082526020820190925261079c91839190610e27565b50565b61067783838360405180602001604052806000815250610ab6565b306001600160a01b037f00000000000000000000000000000000000000000000000000000000000000001614156108035760405162461bcd60e51b815260040161060e90611cff565b7f00000000000000000000000000000000000000000000000000000000000000006001600160a01b031661085e7f360894a13ba1a3210667c828492db98dca3e2076cc3735a920a3ca505d382bbc546001600160a01b031690565b6001600160a01b0316146108845760405162461bcd60e51b815260040161060e90611d67565b61088d82610e1f565b61089982826001610e27565b5050565b6000306001600160a01b037f000000000000000000000000000000000000000000000000000000000000000016146108e75760405162461bcd60e51b815260040161060e90611dcf565b507f360894a13ba1a3210667c828492db98dca3e2076cc3735a920a3ca505d382bbc90565b600054610100900460ff161580801561092c5750600054600160ff909116105b806109465750303b158015610946575060005460ff166001145b6109625760405162461bcd60e51b815260040161060e90611e37565b6000805460ff191660011790558015610985576000805461ff0019166101001790555b61098f8484610f1b565b610997610f4c565b61099f610f7b565b6109a885610b8b565b81516109bc9061012d9060208501906115c1565b508015610a08576000805461ff00191690556040517f7f26b83ff96e1f2b6a682f133852f6798a09c465da95921460cefb3847402498906109ff90600190611e5b565b60405180910390a15b5050505050565b6000818152606760205260408120546001600160a01b0316806105105760405162461bcd60e51b815260040161060e90611e9d565b60006001600160a01b038216610a6c5760405162461bcd60e51b815260040161060e90611f05565b506001600160a01b031660009081526068602052604090205490565b610a90610fa2565b610a9a6000610fcc565b565b60606066805461052590611b40565b61089933838361102b565b610ac03383610c71565b610adc5760405162461bcd60e51b815260040161060e90611c97565b610ae8848484846110ce565b50505050565b6060610af982610bc2565b6000610b1060408051602081019091526000815290565b90506000815111610b305760405180602001604052806000815250610b5b565b80610b3a84611101565b604051602001610b4b929190611f37565b6040516020818303038152906040525b9392505050565b606061012d604051602001610b779190611fbb565b604051602081830303815290604052905090565b610b93610fa2565b6001600160a01b038116610bb95760405162461bcd60e51b815260040161060e9061204b565b61079c81610fcc565b6000818152606760205260409020546001600160a01b031661079c5760405162461bcd60e51b815260040161060e90611e9d565b6000818152606960205260409020805473ffffffffffffffffffffffffffffffffffffffff19166001600160a01b0384169081179091558190610c3882610a0f565b6001600160a01b03167f8c5be1e5ebec7d5bd14f71427d1e84f3dd0314c0f7b2291e5b200ac8c7c3b92560405160405180910390a45050565b600080610c7d83610a0f565b9050806001600160a01b0316846001600160a01b03161480610cc457506001600160a01b038082166000908152606a602090815260408083209388168352929052205460ff165b80610ce85750836001600160a01b0316610cdd846105a8565b6001600160a01b0316145b949350505050565b826001600160a01b0316610d0382610a0f565b6001600160a01b031614610d295760405162461bcd60e51b815260040161060e906120b3565b6001600160a01b038216610d4f5760405162461bcd60e51b815260040161060e9061211b565b610d5a600082610bf6565b6001600160a01b0383166000908152606860205260408120805460019290610d83908490612141565b90915550506001600160a01b0382166000908152606860205260408120805460019290610db1908490612158565b9091555050600081815260676020526040808220805473ffffffffffffffffffffffffffffffffffffffff19166001600160a01b0386811691821790925591518493918716917fddf252ad1be2c89b69c2b068fc378daa952ba7f163c4a11628f55a4df523b3ef91a4505050565b61079c610fa2565b7f4910fdfa16fed3260ed0e7147f7cc6da11a60208b5b9406d12a635614ffd91435460ff1615610e5a5761067783611233565b826001600160a01b03166352d1902d6040518163ffffffff1660e01b8152600401602060405180830381865afa925050508015610eb4575060408051601f3d908101601f19168201909252610eb19181019061217b565b60015b610ed05760405162461bcd60e51b815260040161060e906121f4565b7f360894a13ba1a3210667c828492db98dca3e2076cc3735a920a3ca505d382bbc8114610f0f5760405162461bcd60e51b815260040161060e9061225c565b506106778383836112a8565b600054610100900460ff16610f425760405162461bcd60e51b815260040161060e906122c4565b61089982826112cd565b600054610100900460ff16610f735760405162461bcd60e51b815260040161060e906122c4565b610a9a61131b565b600054610100900460ff16610a9a5760405162461bcd60e51b815260040161060e906122c4565b6097546001600160a01b03163314610a9a5760405162461bcd60e51b815260040161060e90612304565b609780546001600160a01b0383811673ffffffffffffffffffffffffffffffffffffffff19831681179093556040519116919082907f8be0079c531659141344cd1fd0a4f28419497f9722a3daafe3b4186f6b6457e090600090a35050565b816001600160a01b0316836001600160a01b0316141561105d5760405162461bcd60e51b815260040161060e90612346565b6001600160a01b038381166000818152606a602090815260408083209487168084529490915290819020805460ff1916851515179055517f17307eab39ab6107e8899845ad3d59bd9653f200f220920489ca2b5937696c31906110c19085906116bf565b60405180910390a3505050565b6110d9848484610cf0565b6110e58484848461134b565b610ae85760405162461bcd60e51b815260040161060e906123ae565b60608161114157505060408051808201909152600181527f3000000000000000000000000000000000000000000000000000000000000000602082015290565b8160005b811561116b5780611155816123be565b91506111649050600a8361240d565b9150611145565b60008167ffffffffffffffff81111561118657611186611858565b6040519080825280601f01601f1916602001820160405280156111b0576020820181803683370190505b5090505b8415610ce8576111c5600183612141565b91506111d2600a86612421565b6111dd906030612158565b60f81b8183815181106111f2576111f2612435565b60200101907effffffffffffffffffffffffffffffffffffffffffffffffffffffffffffff1916908160001a90535061122c600a8661240d565b94506111b4565b6001600160a01b0381163b61125a5760405162461bcd60e51b815260040161060e906124a3565b7f360894a13ba1a3210667c828492db98dca3e2076cc3735a920a3ca505d382bbc805473ffffffffffffffffffffffffffffffffffffffff19166001600160a01b0392909216919091179055565b6112b183611493565b6000825111806112be5750805b1561067757610ae883836114d3565b600054610100900460ff166112f45760405162461bcd60e51b815260040161060e906122c4565b81516113079060659060208501906115c1565b5080516106779060669060208401906115c1565b600054610100900460ff166113425760405162461bcd60e51b815260040161060e906122c4565b610a9a33610fcc565b60006001600160a01b0384163b15611488576040517f150b7a020000000000000000000000000000000000000000000000000000000081526001600160a01b0385169063150b7a02906113a89033908990889088906004016124b3565b6020604051808303816000875af19250505080156113e3575060408051601f3d908101601f191682019092526113e091810190612502565b60015b61143d573d808015611411576040519150601f19603f3d011682016040523d82523d6000602084013e611416565b606091505b5080516114355760405162461bcd60e51b815260040161060e906123ae565b805181602001fd5b7fffffffff00000000000000000000000000000000000000000000000000000000167f150b7a0200000000000000000000000000000000000000000000000000000000149050610ce8565b506001949350505050565b61149c81611233565b6040516001600160a01b038216907fbc7cd75a20ee27fd9adebab32041f755214dbc6bffa90cc0225b39da2e5c2d3b90600090a250565b60606001600160a01b0383163b6114fc5760405162461bcd60e51b815260040161060e9061257b565b600080846001600160a01b031684604051611517919061258b565b600060405180830381855af49150503d8060008114611552576040519150601f19603f3d011682016040523d82523d6000602084013e611557565b606091505b509150915061157f828260405180606001604052806027815260200161259660279139611588565b95945050505050565b60608315611597575081610b5b565b8251156115a75782518084602001fd5b8160405162461bcd60e51b815260040161060e919061172b565b8280546115cd90611b40565b90600052602060002090601f0160209004810192826115ef5760008555611635565b82601f1061160857805160ff1916838001178555611635565b82800160010185558215611635579182015b8281111561163557825182559160200191906001019061161a565b50611641929150611645565b5090565b5b808211156116415760008155600101611646565b7fffffffff0000000000000000000000000000000000000000000000000000000081165b811461079c57600080fd5b80356105108161165a565b6000602082840312156116a9576116a9600080fd5b6000610ce88484611689565b8015155b82525050565b6020810161051082846116b5565b60005b838110156116e85781810151838201526020016116d0565b83811115610ae85750506000910152565b6000611703825190565b80845260208401935061171a8185602086016116cd565b601f01601f19169290920192915050565b60208082528101610b5b81846116f9565b8061167e565b80356105108161173c565b60006020828403121561176257611762600080fd5b6000610ce88484611742565b60006001600160a01b038216610510565b6116b98161176e565b60208101610510828461177f565b61167e8161176e565b803561051081611796565b600080604083850312156117c0576117c0600080fd5b60006117cc858561179f565b92505060206117dd85828601611742565b9150509250929050565b6000806000606084860312156117ff576117ff600080fd5b600061180b868661179f565b935050602061181c8682870161179f565b925050604061182d86828701611742565b9150509250925092565b60006020828403121561184c5761184c600080fd5b6000610ce8848461179f565b634e487b7160e01b600052604160045260246000fd5b601f19601f830116810181811067ffffffffffffffff8211171561189457611894611858565b6040525050565b60006118a660405190565b90506118b2828261186e565b919050565b600067ffffffffffffffff8211156118d1576118d1611858565b601f19601f83011660200192915050565b82818337506000910152565b60006119016118fc846118b7565b61189b565b90508281526020810184848401111561191c5761191c600080fd5b6119278482856118e2565b509392505050565b600082601f83011261194357611943600080fd5b8135610ce88482602086016118ee565b6000806040838503121561196957611969600080fd5b6000611975858561179f565b925050602083013567ffffffffffffffff81111561199557611995600080fd5b6117dd8582860161192f565b806116b9565b6020810161051082846119a1565b600080600080608085870312156119ce576119ce600080fd5b60006119da878761179f565b945050602085013567ffffffffffffffff8111156119fa576119fa600080fd5b611a068782880161192f565b935050604085013567ffffffffffffffff811115611a2657611a26600080fd5b611a328782880161192f565b925050606085013567ffffffffffffffff811115611a5257611a52600080fd5b611a5e8782880161192f565b91505092959194509250565b80151561167e565b803561051081611a6a565b60008060408385031215611a9357611a93600080fd5b6000611a9f858561179f565b92505060206117dd85828601611a72565b60008060008060808587031215611ac957611ac9600080fd5b6000611ad5878761179f565b9450506020611ae68782880161179f565b9350506040611a3287828801611742565b60008060408385031215611b0d57611b0d600080fd5b6000611b19858561179f565b92505060206117dd8582860161179f565b634e487b7160e01b600052602260045260246000fd5b600281046001821680611b5457607f821691505b60208210811415611b6757611b67611b2a565b50919050565b60218152602081017f4552433732313a20617070726f76616c20746f2063757272656e74206f776e6581527f7200000000000000000000000000000000000000000000000000000000000000602082015290505b60400190565b6020808252810161051081611b6d565b603e8152602081017f4552433732313a20617070726f76652063616c6c6572206973206e6f7420746f81527f6b656e206f776e6572206e6f7220617070726f76656420666f7220616c6c000060208201529050611bc1565b6020808252810161051081611bd7565b602e8152602081017f4552433732313a2063616c6c6572206973206e6f7420746f6b656e206f776e6581527f72206e6f7220617070726f76656400000000000000000000000000000000000060208201529050611bc1565b6020808252810161051081611c3f565b602c8152602081017f46756e6374696f6e206d7573742062652063616c6c6564207468726f7567682081527f64656c656761746563616c6c000000000000000000000000000000000000000060208201529050611bc1565b6020808252810161051081611ca7565b602c8152602081017f46756e6374696f6e206d7573742062652063616c6c6564207468726f7567682081527f6163746976652070726f7879000000000000000000000000000000000000000060208201529050611bc1565b6020808252810161051081611d0f565b60388152602081017f555550535570677261646561626c653a206d757374206e6f742062652063616c81527f6c6564207468726f7567682064656c656761746563616c6c000000000000000060208201529050611bc1565b6020808252810161051081611d77565b602e8152602081017f496e697469616c697a61626c653a20636f6e747261637420697320616c72656181527f647920696e697469616c697a656400000000000000000000000000000000000060208201529050611bc1565b6020808252810161051081611ddf565b600060ff8216610510565b6116b981611e47565b602081016105108284611e52565b60188152602081017f4552433732313a20696e76616c696420746f6b656e2049440000000000000000815290505b60200190565b6020808252810161051081611e69565b60298152602081017f4552433732313a2061646472657373207a65726f206973206e6f74206120766181527f6c6964206f776e6572000000000000000000000000000000000000000000000060208201529050611bc1565b6020808252810161051081611ead565b6000611f1f825190565b611f2d8185602086016116cd565b9290920192915050565b611f418184611f15565b9050610b5b8183611f15565b60008154611f5a81611b40565b600182168015611f715760018114611f8257611fb2565b60ff19831686528186019350611fb2565b60008581526020902060005b83811015611faa57815488820152600190910190602001611f8e565b505081860193505b50505092915050565b611fc58183611f4d565b7f73746f726566726f6e740000000000000000000000000000000000000000000081529050600a8101610510565b60268152602081017f4f776e61626c653a206e6577206f776e657220697320746865207a65726f206181527f646472657373000000000000000000000000000000000000000000000000000060208201529050611bc1565b6020808252810161051081611ff3565b60258152602081017f4552433732313a207472616e736665722066726f6d20696e636f72726563742081527f6f776e657200000000000000000000000000000000000000000000000000000060208201529050611bc1565b602080825281016105108161205b565b60248152602081017f4552433732313a207472616e7366657220746f20746865207a65726f2061646481527f726573730000000000000000000000000000000000000000000000000000000060208201529050611bc1565b60208082528101610510816120c3565b634e487b7160e01b600052601160045260246000fd5b6000828210156121535761215361212b565b500390565b6000821982111561216b5761216b61212b565b500190565b80516105108161173c565b60006020828403121561219057612190600080fd5b6000610ce88484612170565b602e8152602081017f45524331393637557067726164653a206e657720696d706c656d656e7461746981527f6f6e206973206e6f74205555505300000000000000000000000000000000000060208201529050611bc1565b602080825281016105108161219c565b60298152602081017f45524331393637557067726164653a20756e737570706f727465642070726f7881527f6961626c6555554944000000000000000000000000000000000000000000000060208201529050611bc1565b6020808252810161051081612204565b602b8152602081017f496e697469616c697a61626c653a20636f6e7472616374206973206e6f74206981527f6e697469616c697a696e6700000000000000000000000000000000000000000060208201529050611bc1565b602080825281016105108161226c565b60208082527f4f776e61626c653a2063616c6c6572206973206e6f7420746865206f776e65729101908152611e97565b60208082528101610510816122d4565b60198152602081017f4552433732313a20617070726f766520746f2063616c6c65720000000000000081529050611e97565b6020808252810161051081612314565b60328152602081017f4552433732313a207472616e7366657220746f206e6f6e20455243373231526581527f63656976657220696d706c656d656e746572000000000000000000000000000060208201529050611bc1565b6020808252810161051081612356565b60007fffffffffffffffffffffffffffffffffffffffffffffffffffffffffffffffff8214156123f0576123f061212b565b5060010190565b634e487b7160e01b600052601260045260246000fd5b60008261241c5761241c6123f7565b500490565b600082612430576124306123f7565b500690565b634e487b7160e01b600052603260045260246000fd5b602d8152602081017f455243313936373a206e657720696d706c656d656e746174696f6e206973206e81527f6f74206120636f6e74726163740000000000000000000000000000000000000060208201529050611bc1565b602080825281016105108161244b565b608081016124c1828761177f565b6124ce602083018661177f565b6124db60408301856119a1565b81810360608301526124ed81846116f9565b9695505050505050565b80516105108161165a565b60006020828403121561251757612517600080fd5b6000610ce884846124f7565b60268152602081017f416464726573733a2064656c65676174652063616c6c20746f206e6f6e2d636f81527f6e7472616374000000000000000000000000000000000000000000000000000060208201529050611bc1565b6020808252810161051081612523565b6105108183611f1556fe416464726573733a206c6f772d6c6576656c2064656c65676174652063616c6c206661696c6564a2646970667358221220c04d955453fc2d78d4f61b23194ec590b7bd99f72d651983f82d23abe11db3b964736f6c634300080a0033",
  "linkReferences": {},
  "deployedLinkReferences": {}
}