{
  "_format": "hh-sol-artifact-1",
  "contractName": "NftMarketplace",
  "sourceName": "contracts/NftMarketplace.sol",
  "abi": [
    {
      "inputs": [
        {
          "internalType": "uint256",
          "name": "price",
          "type": "uint256"
        },
        {
          "internalType": "uint256",
          "name": "allowedFund",
          "type": "uint256"
        }
      ],
      "name": "InsufficientFund",
      "type": "error"
    },
    {
      "inputs": [
        {
          "internalType": "uint256",
          "name": "itemId",
          "type": "uint256"
        }
      ],
      "name": "InvalidItemId",
      "type": "error"
    },
    {
      "inputs": [
        {
          "internalType": "uint256",
          "name": "quantity",
          "type": "uint256"
        },
        {
          "internalType": "uint256",
          "name": "numSold",
          "type": "uint256"
        }
      ],
      "name": "ItemSoldOut",
      "type": "error"
    },
    {
      "inputs": [
        {
          "internalType": "uint256",
          "name": "availableQuantity",
          "type": "uint256"
        }
      ],
      "name": "QuantityDoesNotExist",
      "type": "error"
    },
    {
      "anonymous": false,
      "inputs": [
        {
          "indexed": false,
          "internalType": "address",
          "name": "previousAdmin",
          "type": "address"
        },
        {
          "indexed": false,
          "internalType": "address",
          "name": "newAdmin",
          "type": "address"
        }
      ],
      "name": "AdminChanged",
      "type": "event"
    },
    {
      "anonymous": false,
      "inputs": [
        {
          "indexed": true,
          "internalType": "address",
          "name": "owner",
          "type": "address"
        },
        {
          "indexed": true,
          "internalType": "address",
          "name": "approved",
          "type": "address"
        },
        {
          "indexed": true,
          "internalType": "uint256",
          "name": "tokenId",
          "type": "uint256"
        }
      ],
      "name": "Approval",
      "type": "event"
    },
    {
      "anonymous": false,
      "inputs": [
        {
          "indexed": true,
          "internalType": "address",
          "name": "owner",
          "type": "address"
        },
        {
          "indexed": true,
          "internalType": "address",
          "name": "operator",
          "type": "address"
        },
        {
          "indexed": false,
          "internalType": "bool",
          "name": "approved",
          "type": "bool"
        }
      ],
      "name": "ApprovalForAll",
      "type": "event"
    },
    {
      "anonymous": false,
      "inputs": [
        {
          "indexed": true,
          "internalType": "address",
          "name": "beacon",
          "type": "address"
        }
      ],
      "name": "BeaconUpgraded",
      "type": "event"
    },
    {
      "anonymous": false,
      "inputs": [
        {
          "indexed": false,
          "internalType": "uint8",
          "name": "version",
          "type": "uint8"
        }
      ],
      "name": "Initialized",
      "type": "event"
    },
    {
      "anonymous": false,
      "inputs": [
        {
          "indexed": true,
          "internalType": "uint256",
          "name": "itemId",
          "type": "uint256"
        },
        {
          "indexed": false,
          "internalType": "address",
          "name": "owner",
          "type": "address"
        },
        {
          "indexed": false,
          "internalType": "uint256",
          "name": "price",
          "type": "uint256"
        },
        {
          "indexed": false,
          "internalType": "uint32",
          "name": "quantity",
          "type": "uint32"
        }
      ],
      "name": "ItemCreated",
      "type": "event"
    },
    {
      "anonymous": false,
      "inputs": [
        {
          "indexed": true,
          "internalType": "address",
          "name": "previousOwner",
          "type": "address"
        },
        {
          "indexed": true,
          "internalType": "address",
          "name": "newOwner",
          "type": "address"
        }
      ],
      "name": "OwnershipTransferred",
      "type": "event"
    },
    {
      "anonymous": false,
      "inputs": [
        {
          "indexed": true,
          "internalType": "address",
          "name": "from",
          "type": "address"
        },
        {
          "indexed": true,
          "internalType": "address",
          "name": "to",
          "type": "address"
        },
        {
          "indexed": true,
          "internalType": "uint256",
          "name": "tokenId",
          "type": "uint256"
        }
      ],
      "name": "Transfer",
      "type": "event"
    },
    {
      "anonymous": false,
      "inputs": [
        {
          "indexed": true,
          "internalType": "address",
          "name": "implementation",
          "type": "address"
        }
      ],
      "name": "Upgraded",
      "type": "event"
    },
    {
      "anonymous": false,
      "inputs": [
        {
          "indexed": true,
          "internalType": "uint256",
          "name": "soldItemCopyId",
          "type": "uint256"
        },
        {
          "indexed": false,
          "internalType": "uint256",
          "name": "soldItemId",
          "type": "uint256"
        },
        {
          "indexed": false,
          "internalType": "uint32",
          "name": "numSold",
          "type": "uint32"
        },
        {
          "indexed": false,
          "internalType": "address",
          "name": "buyer",
          "type": "address"
        },
        {
          "indexed": false,
          "internalType": "string",
          "name": "soldItemBaseURI",
          "type": "string"
        }
      ],
      "name": "itemCopySold",
      "type": "event"
    },
    {
      "anonymous": false,
      "inputs": [
        {
          "indexed": true,
          "internalType": "uint256",
          "name": "tokenId",
          "type": "uint256"
        },
        {
          "indexed": false,
          "internalType": "string",
          "name": "name",
          "type": "string"
        },
        {
          "indexed": false,
          "internalType": "string",
          "name": "symbol",
          "type": "string"
        },
        {
          "indexed": false,
          "internalType": "address",
          "name": "owner",
          "type": "address"
        },
        {
          "indexed": false,
          "internalType": "address",
          "name": "tokenAddress",
          "type": "address"
        },
        {
          "indexed": false,
          "internalType": "string",
          "name": "contractBaseURI",
          "type": "string"
        }
      ],
      "name": "tokenCreated",
      "type": "event"
    },
    {
      "inputs": [
        {
          "internalType": "address",
          "name": "to",
          "type": "address"
        },
        {
          "internalType": "uint256",
          "name": "tokenId",
          "type": "uint256"
        }
      ],
      "name": "approve",
      "outputs": [],
      "stateMutability": "nonpayable",
      "type": "function"
    },
    {
      "inputs": [
        {
          "internalType": "address",
          "name": "owner",
          "type": "address"
        }
      ],
      "name": "balanceOf",
      "outputs": [
        {
          "internalType": "uint256",
          "name": "",
          "type": "uint256"
        }
      ],
      "stateMutability": "view",
      "type": "function"
    },
    {
      "inputs": [
        {
          "internalType": "uint256",
          "name": "_itemId",
          "type": "uint256"
        },
        {
          "internalType": "string",
          "name": "_tokenBaseURI",
          "type": "string"
        }
      ],
      "name": "buyItemCopy",
      "outputs": [],
      "stateMutability": "payable",
      "type": "function"
    },
    {
      "inputs": [
        {
          "internalType": "address",
          "name": "_owner",
          "type": "address"
        },
        {
          "internalType": "string",
          "name": "_name",
          "type": "string"
        },
        {
          "internalType": "string",
          "name": "_symbol",
          "type": "string"
        },
        {
          "internalType": "string",
          "name": "_contractBaseURI",
          "type": "string"
        }
      ],
      "name": "createToken",
      "outputs": [
        {
          "internalType": "bool",
          "name": "",
          "type": "bool"
        }
      ],
      "stateMutability": "nonpayable",
      "type": "function"
    },
    {
      "inputs": [
        {
          "internalType": "uint256",
          "name": "",
          "type": "uint256"
        }
      ],
      "name": "depositedForItem",
      "outputs": [
        {
          "internalType": "uint256",
          "name": "",
          "type": "uint256"
        }
      ],
      "stateMutability": "view",
      "type": "function"
    },
    {
      "inputs": [
        {
          "internalType": "uint256",
          "name": "tokenId",
          "type": "uint256"
        }
      ],
      "name": "getApproved",
      "outputs": [
        {
          "internalType": "address",
          "name": "",
          "type": "address"
        }
      ],
      "stateMutability": "view",
      "type": "function"
    },
    {
      "inputs": [
        {
          "internalType": "address",
          "name": "owner",
          "type": "address"
        },
        {
          "internalType": "address",
          "name": "operator",
          "type": "address"
        }
      ],
      "name": "isApprovedForAll",
      "outputs": [
        {
          "internalType": "bool",
          "name": "",
          "type": "bool"
        }
      ],
      "stateMutability": "view",
      "type": "function"
    },
    {
      "inputs": [
        {
          "internalType": "uint256",
          "name": "",
          "type": "uint256"
        }
      ],
      "name": "listedItems",
      "outputs": [
        {
          "internalType": "uint256",
          "name": "itemId",
          "type": "uint256"
        },
        {
          "internalType": "address payable",
          "name": "seller",
          "type": "address"
        },
        {
          "internalType": "address payable",
          "name": "owner",
          "type": "address"
        },
        {
          "internalType": "uint256",
          "name": "price",
          "type": "uint256"
        },
        {
          "internalType": "uint32",
          "name": "numSold",
          "type": "uint32"
        },
        {
          "internalType": "uint32",
          "name": "quantity",
          "type": "uint32"
        }
      ],
      "stateMutability": "view",
      "type": "function"
    },
    {
      "inputs": [],
      "name": "name",
      "outputs": [
        {
          "internalType": "string",
          "name": "",
          "type": "string"
        }
      ],
      "stateMutability": "view",
      "type": "function"
    },
    {
      "inputs": [],
      "name": "owner",
      "outputs": [
        {
          "internalType": "address",
          "name": "",
          "type": "address"
        }
      ],
      "stateMutability": "view",
      "type": "function"
    },
    {
      "inputs": [
        {
          "internalType": "uint256",
          "name": "tokenId",
          "type": "uint256"
        }
      ],
      "name": "ownerOf",
      "outputs": [
        {
          "internalType": "address",
          "name": "",
          "type": "address"
        }
      ],
      "stateMutability": "view",
      "type": "function"
    },
    {
      "inputs": [],
      "name": "proxiableUUID",
      "outputs": [
        {
          "internalType": "bytes32",
          "name": "",
          "type": "bytes32"
        }
      ],
      "stateMutability": "view",
      "type": "function"
    },
    {
      "inputs": [],
      "name": "renounceOwnership",
      "outputs": [],
      "stateMutability": "nonpayable",
      "type": "function"
    },
    {
      "inputs": [
        {
          "internalType": "address",
          "name": "from",
          "type": "address"
        },
        {
          "internalType": "address",
          "name": "to",
          "type": "address"
        },
        {
          "internalType": "uint256",
          "name": "tokenId",
          "type": "uint256"
        }
      ],
      "name": "safeTransferFrom",
      "outputs": [],
      "stateMutability": "nonpayable",
      "type": "function"
    },
    {
      "inputs": [
        {
          "internalType": "address",
          "name": "from",
          "type": "address"
        },
        {
          "internalType": "address",
          "name": "to",
          "type": "address"
        },
        {
          "internalType": "uint256",
          "name": "tokenId",
          "type": "uint256"
        },
        {
          "internalType": "bytes",
          "name": "data",
          "type": "bytes"
        }
      ],
      "name": "safeTransferFrom",
      "outputs": [],
      "stateMutability": "nonpayable",
      "type": "function"
    },
    {
      "inputs": [
        {
          "internalType": "address",
          "name": "operator",
          "type": "address"
        },
        {
          "internalType": "bool",
          "name": "approved",
          "type": "bool"
        }
      ],
      "name": "setApprovalForAll",
      "outputs": [],
      "stateMutability": "nonpayable",
      "type": "function"
    },
    {
      "inputs": [
        {
          "internalType": "bytes4",
          "name": "interfaceId",
          "type": "bytes4"
        }
      ],
      "name": "supportsInterface",
      "outputs": [
        {
          "internalType": "bool",
          "name": "",
          "type": "bool"
        }
      ],
      "stateMutability": "view",
      "type": "function"
    },
    {
      "inputs": [],
      "name": "symbol",
      "outputs": [
        {
          "internalType": "string",
          "name": "",
          "type": "string"
        }
      ],
      "stateMutability": "view",
      "type": "function"
    },
    {
      "inputs": [
        {
          "internalType": "uint256",
          "name": "",
          "type": "uint256"
        }
      ],
      "name": "tokenToListedItem",
      "outputs": [
        {
          "internalType": "uint256",
          "name": "",
          "type": "uint256"
        }
      ],
      "stateMutability": "view",
      "type": "function"
    },
    {
      "inputs": [
        {
          "internalType": "uint256",
          "name": "_tokenId",
          "type": "uint256"
        }
      ],
      "name": "tokenURI",
      "outputs": [
        {
          "internalType": "string",
          "name": "",
          "type": "string"
        }
      ],
      "stateMutability": "view",
      "type": "function"
    },
    {
      "inputs": [
        {
          "internalType": "address",
          "name": "from",
          "type": "address"
        },
        {
          "internalType": "address",
          "name": "to",
          "type": "address"
        },
        {
          "internalType": "uint256",
          "name": "tokenId",
          "type": "uint256"
        }
      ],
      "name": "transferFrom",
      "outputs": [],
      "stateMutability": "nonpayable",
      "type": "function"
    },
    {
      "inputs": [
        {
          "internalType": "address",
          "name": "newOwner",
          "type": "address"
        }
      ],
      "name": "transferOwnership",
      "outputs": [],
      "stateMutability": "nonpayable",
      "type": "function"
    },
    {
      "inputs": [
        {
          "internalType": "address",
          "name": "newImplementation",
          "type": "address"
        }
      ],
      "name": "upgradeTo",
      "outputs": [],
      "stateMutability": "nonpayable",
      "type": "function"
    },
    {
      "inputs": [
        {
          "internalType": "address",
          "name": "newImplementation",
          "type": "address"
        },
        {
          "internalType": "bytes",
          "name": "data",
          "type": "bytes"
        }
      ],
      "name": "upgradeToAndCall",
      "outputs": [],
      "stateMutability": "payable",
      "type": "function"
    }
  ],
  "bytecode": "0x60a06040523060805234801561001457600080fd5b5060805161561661004c600039600081816107ae015281816107ee015281816108bb015281816108fb01526109a001526156166000f3fe60806040526004361061018b5760003560e01c806370a08231116100d6578063b88d4fde1161007f578063e028d9fc11610059578063e028d9fc14610490578063e985e9c5146104be578063f2fde38b1461050757600080fd5b8063b88d4fde146103d5578063c87b56dd146103f5578063d23470611461041557600080fd5b80638de67077116100b05780638de670771461037257806395d89b41146103a0578063a22cb465146103b557600080fd5b806370a082311461031f578063715018a61461033f5780638da5cb5b1461035457600080fd5b806342842e0e116101385780635a0a8cde116101125780635a0a8cde146102cc57806362cd884b146102df5780636352211e146102ff57600080fd5b806342842e0e146102775780634f1ef2861461029757806352d1902d146102aa57600080fd5b8063095ea7b311610169578063095ea7b31461021557806323b872dd146102375780633659cfe61461025757600080fd5b806301ffc9a71461019057806306fdde03146101c6578063081812fc146101e8575b600080fd5b34801561019c57600080fd5b506101b06101ab366004611f28565b610527565b6040516101bd9190611f53565b60405180910390f35b3480156101d257600080fd5b506101db61060c565b6040516101bd9190611fbf565b3480156101f457600080fd5b50610208610203366004611fe1565b61069e565b6040516101bd919061201c565b34801561022157600080fd5b5061023561023036600461203e565b6106c5565b005b34801561024357600080fd5b5061023561025236600461207b565b610772565b34801561026357600080fd5b506102356102723660046120cb565b6107a3565b34801561028357600080fd5b5061023561029236600461207b565b610895565b6102356102a53660046121e7565b6108b0565b3480156102b657600080fd5b506102bf610993565b6040516101bd919061223b565b6102356102da366004612249565b610a02565b3480156102eb57600080fd5b506101b06102fa36600461226b565b610c58565b34801561030b57600080fd5b5061020861031a366004611fe1565b610eae565b34801561032b57600080fd5b506102bf61033a3660046120cb565b610ee3565b34801561034b57600080fd5b50610235610f27565b34801561036057600080fd5b5060c9546001600160a01b0316610208565b34801561037e57600080fd5b506102bf61038d366004611fe1565b6101646020526000908152604090205481565b3480156103ac57600080fd5b506101db610f3b565b3480156103c157600080fd5b506102356103d0366004612333565b610f4a565b3480156103e157600080fd5b506102356103f0366004612366565b610f55565b34801561040157600080fd5b506101db610410366004611fe1565b610f8d565b34801561042157600080fd5b5061047e610430366004611fe1565b610162602052600090815260409020805460018201546002830154600384015460049094015492936001600160a01b0392831693929091169163ffffffff8082169164010000000090041686565b6040516101bd969594939291906123b9565b34801561049c57600080fd5b506102bf6104ab366004611fe1565b6101636020526000908152604090205481565b3480156104ca57600080fd5b506101b06104d9366004612413565b6001600160a01b039182166000908152606a6020908152604080832093909416825291909152205460ff1690565b34801561051357600080fd5b506102356105223660046120cb565b610fe9565b60007fffffffff0000000000000000000000000000000000000000000000000000000082167f80ac58cd0000000000000000000000000000000000000000000000000000000014806105ba57507fffffffff0000000000000000000000000000000000000000000000000000000082167f5b5e139f00000000000000000000000000000000000000000000000000000000145b8061060657507f01ffc9a7000000000000000000000000000000000000000000000000000000007fffffffff000000000000000000000000000000000000000000000000000000008316145b92915050565b60606065805461061b9061245c565b80601f01602080910402602001604051908101604052809291908181526020018280546106479061245c565b80156106945780601f1061066957610100808354040283529160200191610694565b820191906000526020600020905b81548152906001019060200180831161067757829003601f168201915b5050505050905090565b60006106a982611020565b506000908152606960205260409020546001600160a01b031690565b60006106d082610eae565b9050806001600160a01b0316836001600160a01b0316141561070d5760405162461bcd60e51b8152600401610704906124e3565b60405180910390fd5b336001600160a01b038216148061074757506001600160a01b0381166000908152606a6020908152604080832033845290915290205460ff165b6107635760405162461bcd60e51b81526004016107049061254b565b61076d8383611054565b505050565b61077c33826110cf565b6107985760405162461bcd60e51b8152600401610704906125b3565b61076d83838361114d565b306001600160a01b037f00000000000000000000000000000000000000000000000000000000000000001614156107ec5760405162461bcd60e51b81526004016107049061261b565b7f00000000000000000000000000000000000000000000000000000000000000006001600160a01b03166108477f360894a13ba1a3210667c828492db98dca3e2076cc3735a920a3ca505d382bbc546001600160a01b031690565b6001600160a01b03161461086d5760405162461bcd60e51b815260040161070490612683565b6108768161127c565b6040805160008082526020820190925261089291839190611284565b50565b61076d83838360405180602001604052806000815250610f55565b306001600160a01b037f00000000000000000000000000000000000000000000000000000000000000001614156108f95760405162461bcd60e51b81526004016107049061261b565b7f00000000000000000000000000000000000000000000000000000000000000006001600160a01b03166109547f360894a13ba1a3210667c828492db98dca3e2076cc3735a920a3ca505d382bbc546001600160a01b031690565b6001600160a01b03161461097a5760405162461bcd60e51b815260040161070490612683565b6109838261127c565b61098f82826001611284565b5050565b6000306001600160a01b037f000000000000000000000000000000000000000000000000000000000000000016146109dd5760405162461bcd60e51b8152600401610704906126eb565b507f360894a13ba1a3210667c828492db98dca3e2076cc3735a920a3ca505d382bbc90565b600082815261016260205260409020600381015460049091015463ffffffff64010000000082048116911681610a6657816040517f715ee51c0000000000000000000000000000000000000000000000000000000081526004016107049190612719565b60008511610aa257846040517f26beea04000000000000000000000000000000000000000000000000000000008152600401610704919061223b565b8063ffffffff168263ffffffff1610610aeb5781816040517fce41a06d000000000000000000000000000000000000000000000000000000008152600401610704929190612727565b34831115610b295782346040517f9b0f01da000000000000000000000000000000000000000000000000000000008152600401610704929190612742565b6000858152610164602052604081208054349290610b48908490612773565b9091555050600085815261016260205260408120600401805463ffffffff1691610b718361278b565b91906101000a81548163ffffffff021916908363ffffffff16021790555050610b9f61016080546001019055565b6000610bab6101605490565b905084610bb782611378565b604051602001610bc89291906127d3565b6040516020818303038152906040529450610be43382876114aa565b6000818152610163602090815260408083208990558883526101629091529081902060040154905182917f6a746900e65afab1fcdaa791935c16b4d887c96db0f2bbfd261095d3deb05fb591610c48918a9163ffffffff9091169033908b90612813565b60405180910390a2505050505050565b600080604051610c6790611c54565b604051809103906000f080158015610c83573d6000803e3d6000fd5b506040517f5f1e6f6d0000000000000000000000000000000000000000000000000000000081529091506001600160a01b03821690635f1e6f6d90610cd2908990899089908990600401612857565b600060405180830381600087803b158015610cec57600080fd5b505af1158015610d00573d6000803e3d6000fd5b505061015f8054600101905550819050336000610d1d61015f5490565b905060006101616000846001600160a01b03166001600160a01b031681526020019081526020016000209050806040518060a001604052808481526020018b81526020018a8152602001856001600160a01b03168152602001866001600160a01b03168152509080600181540180825580915050600190039060005260206000209060050201600090919091909150600082015181600001556020820151816001019080519060200190610dd2929190611c61565b5060408201518051610dee916002840191602090910190611c61565b50606082015160038201805473ffffffffffffffffffffffffffffffffffffffff199081166001600160a01b0393841617909155608090930151600490920180549093169181169190911790915583166000908152610161602052604090208154610e5b91908390611ce5565b50817fadeeed8707aa8e72aedca93b8ce693e2dc2756f47cad59bff11722c2b690b0f48a8a86888c604051610e9495949392919061289f565b60405180910390a26001955050505050505b949350505050565b6000818152606760205260408120546001600160a01b0316806106065760405162461bcd60e51b815260040161070490612926565b60006001600160a01b038216610f0b5760405162461bcd60e51b81526004016107049061298e565b506001600160a01b031660009081526068602052604090205490565b610f2f6114be565b610f3960006114e8565b565b60606066805461061b9061245c565b61098f338383611547565b610f5f33836110cf565b610f7b5760405162461bcd60e51b8152600401610704906125b3565b610f8784848484611608565b50505050565b6000818152606760205260409020546060906001600160a01b0316610fe057816040517f26beea04000000000000000000000000000000000000000000000000000000008152600401610704919061223b565b6106068261163b565b610ff16114be565b6001600160a01b0381166110175760405162461bcd60e51b8152600401610704906129f6565b610892816114e8565b6000818152606760205260409020546001600160a01b03166108925760405162461bcd60e51b815260040161070490612926565b6000818152606960205260409020805473ffffffffffffffffffffffffffffffffffffffff19166001600160a01b038416908117909155819061109682610eae565b6001600160a01b03167f8c5be1e5ebec7d5bd14f71427d1e84f3dd0314c0f7b2291e5b200ac8c7c3b92560405160405180910390a45050565b6000806110db83610eae565b9050806001600160a01b0316846001600160a01b0316148061112257506001600160a01b038082166000908152606a602090815260408083209388168352929052205460ff165b80610ea65750836001600160a01b031661113b8461069e565b6001600160a01b031614949350505050565b826001600160a01b031661116082610eae565b6001600160a01b0316146111865760405162461bcd60e51b815260040161070490612a5e565b6001600160a01b0382166111ac5760405162461bcd60e51b815260040161070490612ac6565b6111b7600082611054565b6001600160a01b03831660009081526068602052604081208054600192906111e0908490612ad6565b90915550506001600160a01b038216600090815260686020526040812080546001929061120e908490612773565b9091555050600081815260676020526040808220805473ffffffffffffffffffffffffffffffffffffffff19166001600160a01b0386811691821790925591518493918716917fddf252ad1be2c89b69c2b068fc378daa952ba7f163c4a11628f55a4df523b3ef91a4505050565b6108926114be565b7f4910fdfa16fed3260ed0e7147f7cc6da11a60208b5b9406d12a635614ffd91435460ff16156112b75761076d83611744565b826001600160a01b03166352d1902d6040518163ffffffff1660e01b8152600401602060405180830381865afa925050508015611311575060408051601f3d908101601f1916820190925261130e91810190612af8565b60015b61132d5760405162461bcd60e51b815260040161070490612b71565b7f360894a13ba1a3210667c828492db98dca3e2076cc3735a920a3ca505d382bbc811461136c5760405162461bcd60e51b815260040161070490612bd9565b5061076d8383836117b9565b6060816113b857505060408051808201909152600181527f3000000000000000000000000000000000000000000000000000000000000000602082015290565b8160005b81156113e257806113cc81612be9565b91506113db9050600a83612c31565b91506113bc565b60008167ffffffffffffffff8111156113fd576113fd6120ec565b6040519080825280601f01601f191660200182016040528015611427576020820181803683370190505b5090505b8415610ea65761143c600183612ad6565b9150611449600a86612c45565b611454906030612773565b60f81b81838151811061146957611469612c59565b60200101907effffffffffffffffffffffffffffffffffffffffffffffffffffffffffffff1916908160001a9053506114a3600a86612c31565b945061142b565b6114b483836117de565b61076d82826117f8565b60c9546001600160a01b03163314610f395760405162461bcd60e51b815260040161070490612c9f565b60c980546001600160a01b0383811673ffffffffffffffffffffffffffffffffffffffff19831681179093556040519116919082907f8be0079c531659141344cd1fd0a4f28419497f9722a3daafe3b4186f6b6457e090600090a35050565b816001600160a01b0316836001600160a01b031614156115795760405162461bcd60e51b815260040161070490612ce1565b6001600160a01b038381166000818152606a60209081526040808320948716808452949091529081902080547fffffffffffffffffffffffffffffffffffffffffffffffffffffffffffffff0016851515179055517f17307eab39ab6107e8899845ad3d59bd9653f200f220920489ca2b5937696c31906115fb908590611f53565b60405180910390a3505050565b61161384848461114d565b61161f8484848461184b565b610f875760405162461bcd60e51b815260040161070490612d49565b606061164682611020565b6000828152609760205260408120805461165f9061245c565b80601f016020809104026020016040519081016040528092919081815260200182805461168b9061245c565b80156116d85780601f106116ad576101008083540402835291602001916116d8565b820191906000526020600020905b8154815290600101906020018083116116bb57829003601f168201915b5050505050905060006116f660408051602081019091526000815290565b9050805160001415611709575092915050565b81511561173b578082604051602001611723929190612d59565b60405160208183030381529060405292505050919050565b610ea684611990565b6001600160a01b0381163b61176b5760405162461bcd60e51b815260040161070490612dbb565b7f360894a13ba1a3210667c828492db98dca3e2076cc3735a920a3ca505d382bbc805473ffffffffffffffffffffffffffffffffffffffff19166001600160a01b0392909216919091179055565b6117c283611a04565b6000825111806117cf5750805b1561076d57610f878383611a44565b61098f828260405180602001604052806000815250611af9565b6000828152606760205260409020546001600160a01b031661182c5760405162461bcd60e51b815260040161070490612e23565b6000828152609760209081526040909120825161076d92840190611c61565b60006001600160a01b0384163b15611988576040517f150b7a020000000000000000000000000000000000000000000000000000000081526001600160a01b0385169063150b7a02906118a8903390899088908890600401612e33565b6020604051808303816000875af19250505080156118e3575060408051601f3d908101601f191682019092526118e091810190612e66565b60015b61193d573d808015611911576040519150601f19603f3d011682016040523d82523d6000602084013e611916565b606091505b5080516119355760405162461bcd60e51b815260040161070490612d49565b805181602001fd5b7fffffffff00000000000000000000000000000000000000000000000000000000167f150b7a0200000000000000000000000000000000000000000000000000000000149050610ea6565b506001610ea6565b606061199b82611020565b60006119b260408051602081019091526000815290565b905060008151116119d257604051806020016040528060008152506119fd565b806119dc84611378565b6040516020016119ed929190612d59565b6040516020818303038152906040525b9392505050565b611a0d81611744565b6040516001600160a01b038216907fbc7cd75a20ee27fd9adebab32041f755214dbc6bffa90cc0225b39da2e5c2d3b90600090a250565b60606001600160a01b0383163b611a6d5760405162461bcd60e51b815260040161070490612edf565b600080846001600160a01b031684604051611a889190612eef565b600060405180830381855af49150503d8060008114611ac3576040519150601f19603f3d011682016040523d82523d6000602084013e611ac8565b606091505b5091509150611af082826040518060600160405280602781526020016155ba60279139611b2c565b95945050505050565b611b038383611b65565b611b10600084848461184b565b61076d5760405162461bcd60e51b815260040161070490612d49565b60608315611b3b5750816119fd565b825115611b4b5782518084602001fd5b8160405162461bcd60e51b81526004016107049190611fbf565b6001600160a01b038216611b8b5760405162461bcd60e51b815260040161070490612f29565b6000818152606760205260409020546001600160a01b031615611bc05760405162461bcd60e51b815260040161070490612f6b565b6001600160a01b0382166000908152606860205260408120805460019290611be9908490612773565b9091555050600081815260676020526040808220805473ffffffffffffffffffffffffffffffffffffffff19166001600160a01b03861690811790915590518392907fddf252ad1be2c89b69c2b068fc378daa952ba7f163c4a11628f55a4df523b3ef908290a45050565b61263e80612f7c83390190565b828054611c6d9061245c565b90600052602060002090601f016020900481019282611c8f5760008555611cd5565b82601f10611ca857805160ff1916838001178555611cd5565b82800160010185558215611cd5579182015b82811115611cd5578251825591602001919060010190611cba565b50611ce1929150611dc6565b5090565b828054828255906000526020600020906005028101928215611dba5760005260206000209160050282015b82811115611dba5782548255600180840180548592859290830191611d349061245c565b611d3f929190611ddb565b506002820181600201908054611d549061245c565b611d5f929190611ddb565b50600382810154908201805473ffffffffffffffffffffffffffffffffffffffff199081166001600160a01b039384161790915560049384015493909201805490921692169190911790556005928301929190910190611d10565b50611ce1929150611e56565b5b80821115611ce15760008155600101611dc7565b828054611de79061245c565b90600052602060002090601f016020900481019282611e095760008555611cd5565b82601f10611e1a5780548555611cd5565b82800160010185558215611cd557600052602060002091601f016020900482015b82811115611cd5578254825591600101919060010190611e3b565b80821115611ce1576000808255611e706001830182611eb4565b611e7e600283016000611eb4565b5060038101805473ffffffffffffffffffffffffffffffffffffffff199081169091556004820180549091169055600501611e56565b508054611ec09061245c565b6000825580601f10611ed0575050565b601f0160209004906000526020600020908101906108929190611dc6565b7fffffffff0000000000000000000000000000000000000000000000000000000081165b811461089257600080fd5b803561060681611eee565b600060208284031215611f3d57611f3d600080fd5b6000610ea68484611f1d565b8015155b82525050565b602081016106068284611f49565b60005b83811015611f7c578181015183820152602001611f64565b83811115610f875750506000910152565b6000611f97825190565b808452602084019350611fae818560208601611f61565b601f01601f19169290920192915050565b602080825281016119fd8184611f8d565b80611f12565b803561060681611fd0565b600060208284031215611ff657611ff6600080fd5b6000610ea68484611fd6565b60006001600160a01b038216610606565b611f4d81612002565b602081016106068284612013565b611f1281612002565b80356106068161202a565b6000806040838503121561205457612054600080fd5b60006120608585612033565b925050602061207185828601611fd6565b9150509250929050565b60008060006060848603121561209357612093600080fd5b600061209f8686612033565b93505060206120b086828701612033565b92505060406120c186828701611fd6565b9150509250925092565b6000602082840312156120e0576120e0600080fd5b6000610ea68484612033565b634e487b7160e01b600052604160045260246000fd5b601f19601f830116810181811067ffffffffffffffff82111715612128576121286120ec565b6040525050565b600061213a60405190565b90506121468282612102565b919050565b600067ffffffffffffffff821115612165576121656120ec565b601f19601f83011660200192915050565b82818337506000910152565b60006121956121908461214b565b61212f565b9050828152602081018484840111156121b0576121b0600080fd5b6121bb848285612176565b509392505050565b600082601f8301126121d7576121d7600080fd5b8135610ea6848260208601612182565b600080604083850312156121fd576121fd600080fd5b60006122098585612033565b925050602083013567ffffffffffffffff81111561222957612229600080fd5b612071858286016121c3565b80611f4d565b602081016106068284612235565b6000806040838503121561225f5761225f600080fd5b60006122098585611fd6565b6000806000806080858703121561228457612284600080fd5b60006122908787612033565b945050602085013567ffffffffffffffff8111156122b0576122b0600080fd5b6122bc878288016121c3565b935050604085013567ffffffffffffffff8111156122dc576122dc600080fd5b6122e8878288016121c3565b925050606085013567ffffffffffffffff81111561230857612308600080fd5b612314878288016121c3565b91505092959194509250565b801515611f12565b803561060681612320565b6000806040838503121561234957612349600080fd5b60006123558585612033565b925050602061207185828601612328565b6000806000806080858703121561237f5761237f600080fd5b600061238b8787612033565b945050602061239c87828801612033565b93505060406122e887828801611fd6565b63ffffffff8116611f4d565b60c081016123c78289612235565b6123d46020830188612013565b6123e16040830187612013565b6123ee6060830186612235565b6123fb60808301856123ad565b61240860a08301846123ad565b979650505050505050565b6000806040838503121561242957612429600080fd5b60006124358585612033565b925050602061207185828601612033565b634e487b7160e01b600052602260045260246000fd5b60028104600182168061247057607f821691505b6020821081141561248357612483612446565b50919050565b60218152602081017f4552433732313a20617070726f76616c20746f2063757272656e74206f776e6581527f7200000000000000000000000000000000000000000000000000000000000000602082015290505b60400190565b6020808252810161060681612489565b603e8152602081017f4552433732313a20617070726f76652063616c6c6572206973206e6f7420746f81527f6b656e206f776e6572206e6f7220617070726f76656420666f7220616c6c0000602082015290506124dd565b60208082528101610606816124f3565b602e8152602081017f4552433732313a2063616c6c6572206973206e6f7420746f6b656e206f776e6581527f72206e6f7220617070726f766564000000000000000000000000000000000000602082015290506124dd565b602080825281016106068161255b565b602c8152602081017f46756e6374696f6e206d7573742062652063616c6c6564207468726f7567682081527f64656c656761746563616c6c0000000000000000000000000000000000000000602082015290506124dd565b60208082528101610606816125c3565b602c8152602081017f46756e6374696f6e206d7573742062652063616c6c6564207468726f7567682081527f6163746976652070726f78790000000000000000000000000000000000000000602082015290506124dd565b602080825281016106068161262b565b60388152602081017f555550535570677261646561626c653a206d757374206e6f742062652063616c81527f6c6564207468726f7567682064656c656761746563616c6c0000000000000000602082015290506124dd565b6020808252810161060681612693565b600061060661270d63ffffffff841681565b90565b611f4d816126fb565b602081016106068284612710565b604081016127358285612710565b6119fd6020830184612710565b604081016127508285612235565b6119fd6020830184612235565b634e487b7160e01b600052601160045260246000fd5b600082198211156127865761278661275d565b500190565b63ffffffff81169050600063ffffffff8214156127aa576127aa61275d565b5060010190565b60006127bb825190565b6127c9818560208601611f61565b9290920192915050565b6127dd81846127b1565b7f2f0000000000000000000000000000000000000000000000000000000000000081529050600181015b90506119fd81836127b1565b608081016128218287612235565b61282e60208301866123ad565b61283b6040830185612013565b818103606083015261284d8184611f8d565b9695505050505050565b608081016128658287612013565b81810360208301526128778186611f8d565b9050818103604083015261288b8185611f8d565b9050818103606083015261284d8184611f8d565b60a080825281016128b08188611f8d565b905081810360208301526128c48187611f8d565b90506128d36040830186612013565b6128e06060830185612013565b81810360808301526124088184611f8d565b60188152602081017f4552433732313a20696e76616c696420746f6b656e2049440000000000000000815290505b60200190565b60208082528101610606816128f2565b60298152602081017f4552433732313a2061646472657373207a65726f206973206e6f74206120766181527f6c6964206f776e65720000000000000000000000000000000000000000000000602082015290506124dd565b6020808252810161060681612936565b60268152602081017f4f776e61626c653a206e6577206f776e657220697320746865207a65726f206181527f6464726573730000000000000000000000000000000000000000000000000000602082015290506124dd565b602080825281016106068161299e565b60258152602081017f4552433732313a207472616e736665722066726f6d20696e636f72726563742081527f6f776e6572000000000000000000000000000000000000000000000000000000602082015290506124dd565b6020808252810161060681612a06565b60248152602081017f4552433732313a207472616e7366657220746f20746865207a65726f2061646481527f7265737300000000000000000000000000000000000000000000000000000000602082015290506124dd565b6020808252810161060681612a6e565b600082821015612ae857612ae861275d565b500390565b805161060681611fd0565b600060208284031215612b0d57612b0d600080fd5b6000610ea68484612aed565b602e8152602081017f45524331393637557067726164653a206e657720696d706c656d656e7461746981527f6f6e206973206e6f742055555053000000000000000000000000000000000000602082015290506124dd565b6020808252810161060681612b19565b60298152602081017f45524331393637557067726164653a20756e737570706f727465642070726f7881527f6961626c65555549440000000000000000000000000000000000000000000000602082015290506124dd565b6020808252810161060681612b81565b60007fffffffffffffffffffffffffffffffffffffffffffffffffffffffffffffffff8214156127aa576127aa61275d565b634e487b7160e01b600052601260045260246000fd5b600082612c4057612c40612c1b565b500490565b600082612c5457612c54612c1b565b500690565b634e487b7160e01b600052603260045260246000fd5b60208082527f4f776e61626c653a2063616c6c6572206973206e6f7420746865206f776e65729101908152612920565b6020808252810161060681612c6f565b60198152602081017f4552433732313a20617070726f766520746f2063616c6c65720000000000000081529050612920565b6020808252810161060681612caf565b60328152602081017f4552433732313a207472616e7366657220746f206e6f6e20455243373231526581527f63656976657220696d706c656d656e7465720000000000000000000000000000602082015290506124dd565b6020808252810161060681612cf1565b61280781846127b1565b602d8152602081017f455243313936373a206e657720696d706c656d656e746174696f6e206973206e81527f6f74206120636f6e747261637400000000000000000000000000000000000000602082015290506124dd565b6020808252810161060681612d63565b602e8152602081017f45524337323155524953746f726167653a2055524920736574206f66206e6f6e81527f6578697374656e7420746f6b656e000000000000000000000000000000000000602082015290506124dd565b6020808252810161060681612dcb565b60808101612e418287612013565b612e4e6020830186612013565b61283b6040830185612235565b805161060681611eee565b600060208284031215612e7b57612e7b600080fd5b6000610ea68484612e5b565b60268152602081017f416464726573733a2064656c65676174652063616c6c20746f206e6f6e2d636f81527f6e74726163740000000000000000000000000000000000000000000000000000602082015290506124dd565b6020808252810161060681612e87565b61060681836127b1565b60208082527f4552433732313a206d696e7420746f20746865207a65726f20616464726573739101908152612920565b6020808252810161060681612ef9565b601c8152602081017f4552433732313a20746f6b656e20616c7265616479206d696e7465640000000081529050612920565b6020808252810161060681612f3956fe60a06040523060805234801561001457600080fd5b506080516125f261004c600039600081816106b8015281816106f8015281816107c50152818161080501526108aa01526125f26000f3fe60806040526004361061016a5760003560e01c80636352211e116100cb578063a22cb4651161007f578063e8a3d48511610059578063e8a3d485146103b3578063e985e9c5146103c8578063f2fde38b1461041157600080fd5b8063a22cb46514610353578063b88d4fde14610373578063c87b56dd1461039357600080fd5b8063715018a6116100b0578063715018a61461030b5780638da5cb5b1461032057806395d89b411461033e57600080fd5b80636352211e146102cb57806370a08231146102eb57600080fd5b80633659cfe6116101225780634f1ef286116101075780634f1ef2861461027657806352d1902d146102895780635f1e6f6d146102ab57600080fd5b80633659cfe61461023657806342842e0e1461025657600080fd5b8063081812fc11610153578063081812fc146101c7578063095ea7b3146101f457806323b872dd1461021657600080fd5b806301ffc9a71461016f57806306fdde03146101a5575b600080fd5b34801561017b57600080fd5b5061018f61018a366004611694565b610431565b60405161019c91906116bf565b60405180910390f35b3480156101b157600080fd5b506101ba610516565b60405161019c919061172b565b3480156101d357600080fd5b506101e76101e236600461174d565b6105a8565b60405161019c9190611788565b34801561020057600080fd5b5061021461020f3660046117aa565b6105cf565b005b34801561022257600080fd5b506102146102313660046117e7565b61067c565b34801561024257600080fd5b50610214610251366004611837565b6106ad565b34801561026257600080fd5b506102146102713660046117e7565b61079f565b610214610284366004611953565b6107ba565b34801561029557600080fd5b5061029e61089d565b60405161019c91906119a7565b3480156102b757600080fd5b506102146102c63660046119b5565b61090c565b3480156102d757600080fd5b506101e76102e636600461174d565b610a0f565b3480156102f757600080fd5b5061029e610306366004611837565b610a44565b34801561031757600080fd5b50610214610a88565b34801561032c57600080fd5b506097546001600160a01b03166101e7565b34801561034a57600080fd5b506101ba610a9c565b34801561035f57600080fd5b5061021461036e366004611a7d565b610aab565b34801561037f57600080fd5b5061021461038e366004611ab0565b610ab6565b34801561039f57600080fd5b506101ba6103ae36600461174d565b610aee565b3480156103bf57600080fd5b506101ba610b62565b3480156103d457600080fd5b5061018f6103e3366004611af7565b6001600160a01b039182166000908152606a6020908152604080832093909416825291909152205460ff1690565b34801561041d57600080fd5b5061021461042c366004611837565b610b8b565b60007fffffffff0000000000000000000000000000000000000000000000000000000082167f80ac58cd0000000000000000000000000000000000000000000000000000000014806104c457507fffffffff0000000000000000000000000000000000000000000000000000000082167f5b5e139f00000000000000000000000000000000000000000000000000000000145b8061051057507f01ffc9a7000000000000000000000000000000000000000000000000000000007fffffffff000000000000000000000000000000000000000000000000000000008316145b92915050565b60606065805461052590611b40565b80601f016020809104026020016040519081016040528092919081815260200182805461055190611b40565b801561059e5780601f106105735761010080835404028352916020019161059e565b820191906000526020600020905b81548152906001019060200180831161058157829003601f168201915b5050505050905090565b60006105b382610bc2565b506000908152606960205260409020546001600160a01b031690565b60006105da82610a0f565b9050806001600160a01b0316836001600160a01b031614156106175760405162461bcd60e51b815260040161060e90611bc7565b60405180910390fd5b336001600160a01b038216148061065157506001600160a01b0381166000908152606a6020908152604080832033845290915290205460ff165b61066d5760405162461bcd60e51b815260040161060e90611c2f565b6106778383610bf6565b505050565b6106863382610c71565b6106a25760405162461bcd60e51b815260040161060e90611c97565b610677838383610cf0565b306001600160a01b037f00000000000000000000000000000000000000000000000000000000000000001614156106f65760405162461bcd60e51b815260040161060e90611cff565b7f00000000000000000000000000000000000000000000000000000000000000006001600160a01b03166107517f360894a13ba1a3210667c828492db98dca3e2076cc3735a920a3ca505d382bbc546001600160a01b031690565b6001600160a01b0316146107775760405162461bcd60e51b815260040161060e90611d67565b61078081610e1f565b6040805160008082526020820190925261079c91839190610e27565b50565b61067783838360405180602001604052806000815250610ab6565b306001600160a01b037f00000000000000000000000000000000000000000000000000000000000000001614156108035760405162461bcd60e51b815260040161060e90611cff565b7f00000000000000000000000000000000000000000000000000000000000000006001600160a01b031661085e7f360894a13ba1a3210667c828492db98dca3e2076cc3735a920a3ca505d382bbc546001600160a01b031690565b6001600160a01b0316146108845760405162461bcd60e51b815260040161060e90611d67565b61088d82610e1f565b61089982826001610e27565b5050565b6000306001600160a01b037f000000000000000000000000000000000000000000000000000000000000000016146108e75760405162461bcd60e51b815260040161060e90611dcf565b507f360894a13ba1a3210667c828492db98dca3e2076cc3735a920a3ca505d382bbc90565b600054610100900460ff161580801561092c5750600054600160ff909116105b806109465750303b158015610946575060005460ff166001145b6109625760405162461bcd60e51b815260040161060e90611e37565b6000805460ff191660011790558015610985576000805461ff0019166101001790555b61098f8484610f1b565b610997610f4c565b61099f610f7b565b6109a885610b8b565b81516109bc9061012d9060208501906115c1565b508015610a08576000805461ff00191690556040517f7f26b83ff96e1f2b6a682f133852f6798a09c465da95921460cefb3847402498906109ff90600190611e5b565b60405180910390a15b5050505050565b6000818152606760205260408120546001600160a01b0316806105105760405162461bcd60e51b815260040161060e90611e9d565b60006001600160a01b038216610a6c5760405162461bcd60e51b815260040161060e90611f05565b506001600160a01b031660009081526068602052604090205490565b610a90610fa2565b610a9a6000610fcc565b565b60606066805461052590611b40565b61089933838361102b565b610ac03383610c71565b610adc5760405162461bcd60e51b815260040161060e90611c97565b610ae8848484846110ce565b50505050565b6060610af982610bc2565b6000610b1060408051602081019091526000815290565b90506000815111610b305760405180602001604052806000815250610b5b565b80610b3a84611101565b604051602001610b4b929190611f37565b6040516020818303038152906040525b9392505050565b606061012d604051602001610b779190611fbb565b604051602081830303815290604052905090565b610b93610fa2565b6001600160a01b038116610bb95760405162461bcd60e51b815260040161060e9061204b565b61079c81610fcc565b6000818152606760205260409020546001600160a01b031661079c5760405162461bcd60e51b815260040161060e90611e9d565b6000818152606960205260409020805473ffffffffffffffffffffffffffffffffffffffff19166001600160a01b0384169081179091558190610c3882610a0f565b6001600160a01b03167f8c5be1e5ebec7d5bd14f71427d1e84f3dd0314c0f7b2291e5b200ac8c7c3b92560405160405180910390a45050565b600080610c7d83610a0f565b9050806001600160a01b0316846001600160a01b03161480610cc457506001600160a01b038082166000908152606a602090815260408083209388168352929052205460ff165b80610ce85750836001600160a01b0316610cdd846105a8565b6001600160a01b0316145b949350505050565b826001600160a01b0316610d0382610a0f565b6001600160a01b031614610d295760405162461bcd60e51b815260040161060e906120b3565b6001600160a01b038216610d4f5760405162461bcd60e51b815260040161060e9061211b565b610d5a600082610bf6565b6001600160a01b0383166000908152606860205260408120805460019290610d83908490612141565b90915550506001600160a01b0382166000908152606860205260408120805460019290610db1908490612158565b9091555050600081815260676020526040808220805473ffffffffffffffffffffffffffffffffffffffff19166001600160a01b0386811691821790925591518493918716917fddf252ad1be2c89b69c2b068fc378daa952ba7f163c4a11628f55a4df523b3ef91a4505050565b61079c610fa2565b7f4910fdfa16fed3260ed0e7147f7cc6da11a60208b5b9406d12a635614ffd91435460ff1615610e5a5761067783611233565b826001600160a01b03166352d1902d6040518163ffffffff1660e01b8152600401602060405180830381865afa925050508015610eb4575060408051601f3d908101601f19168201909252610eb19181019061217b565b60015b610ed05760405162461bcd60e51b815260040161060e906121f4565b7f360894a13ba1a3210667c828492db98dca3e2076cc3735a920a3ca505d382bbc8114610f0f5760405162461bcd60e51b815260040161060e9061225c565b506106778383836112a8565b600054610100900460ff16610f425760405162461bcd60e51b815260040161060e906122c4565b61089982826112cd565b600054610100900460ff16610f735760405162461bcd60e51b815260040161060e906122c4565b610a9a61131b565b600054610100900460ff16610a9a5760405162461bcd60e51b815260040161060e906122c4565b6097546001600160a01b03163314610a9a5760405162461bcd60e51b815260040161060e90612304565b609780546001600160a01b0383811673ffffffffffffffffffffffffffffffffffffffff19831681179093556040519116919082907f8be0079c531659141344cd1fd0a4f28419497f9722a3daafe3b4186f6b6457e090600090a35050565b816001600160a01b0316836001600160a01b0316141561105d5760405162461bcd60e51b815260040161060e90612346565b6001600160a01b038381166000818152606a602090815260408083209487168084529490915290819020805460ff1916851515179055517f17307eab39ab6107e8899845ad3d59bd9653f200f220920489ca2b5937696c31906110c19085906116bf565b60405180910390a3505050565b6110d9848484610cf0565b6110e58484848461134b565b610ae85760405162461bcd60e51b815260040161060e906123ae565b60608161114157505060408051808201909152600181527f3000000000000000000000000000000000000000000000000000000000000000602082015290565b8160005b811561116b5780611155816123be565b91506111649050600a8361240d565b9150611145565b60008167ffffffffffffffff81111561118657611186611858565b6040519080825280601f01601f1916602001820160405280156111b0576020820181803683370190505b5090505b8415610ce8576111c5600183612141565b91506111d2600a86612421565b6111dd906030612158565b60f81b8183815181106111f2576111f2612435565b60200101907effffffffffffffffffffffffffffffffffffffffffffffffffffffffffffff1916908160001a90535061122c600a8661240d565b94506111b4565b6001600160a01b0381163b61125a5760405162461bcd60e51b815260040161060e906124a3565b7f360894a13ba1a3210667c828492db98dca3e2076cc3735a920a3ca505d382bbc805473ffffffffffffffffffffffffffffffffffffffff19166001600160a01b0392909216919091179055565b6112b183611493565b6000825111806112be5750805b1561067757610ae883836114d3565b600054610100900460ff166112f45760405162461bcd60e51b815260040161060e906122c4565b81516113079060659060208501906115c1565b5080516106779060669060208401906115c1565b600054610100900460ff166113425760405162461bcd60e51b815260040161060e906122c4565b610a9a33610fcc565b60006001600160a01b0384163b15611488576040517f150b7a020000000000000000000000000000000000000000000000000000000081526001600160a01b0385169063150b7a02906113a89033908990889088906004016124b3565b6020604051808303816000875af19250505080156113e3575060408051601f3d908101601f191682019092526113e091810190612502565b60015b61143d573d808015611411576040519150601f19603f3d011682016040523d82523d6000602084013e611416565b606091505b5080516114355760405162461bcd60e51b815260040161060e906123ae565b805181602001fd5b7fffffffff00000000000000000000000000000000000000000000000000000000167f150b7a0200000000000000000000000000000000000000000000000000000000149050610ce8565b506001949350505050565b61149c81611233565b6040516001600160a01b038216907fbc7cd75a20ee27fd9adebab32041f755214dbc6bffa90cc0225b39da2e5c2d3b90600090a250565b60606001600160a01b0383163b6114fc5760405162461bcd60e51b815260040161060e9061257b565b600080846001600160a01b031684604051611517919061258b565b600060405180830381855af49150503d8060008114611552576040519150601f19603f3d011682016040523d82523d6000602084013e611557565b606091505b509150915061157f828260405180606001604052806027815260200161259660279139611588565b95945050505050565b60608315611597575081610b5b565b8251156115a75782518084602001fd5b8160405162461bcd60e51b815260040161060e919061172b565b8280546115cd90611b40565b90600052602060002090601f0160209004810192826115ef5760008555611635565b82601f1061160857805160ff1916838001178555611635565b82800160010185558215611635579182015b8281111561163557825182559160200191906001019061161a565b50611641929150611645565b5090565b5b808211156116415760008155600101611646565b7fffffffff0000000000000000000000000000000000000000000000000000000081165b811461079c57600080fd5b80356105108161165a565b6000602082840312156116a9576116a9600080fd5b6000610ce88484611689565b8015155b82525050565b6020810161051082846116b5565b60005b838110156116e85781810151838201526020016116d0565b83811115610ae85750506000910152565b6000611703825190565b80845260208401935061171a8185602086016116cd565b601f01601f19169290920192915050565b60208082528101610b5b81846116f9565b8061167e565b80356105108161173c565b60006020828403121561176257611762600080fd5b6000610ce88484611742565b60006001600160a01b038216610510565b6116b98161176e565b60208101610510828461177f565b61167e8161176e565b803561051081611796565b600080604083850312156117c0576117c0600080fd5b60006117cc858561179f565b92505060206117dd85828601611742565b9150509250929050565b6000806000606084860312156117ff576117ff600080fd5b600061180b868661179f565b935050602061181c8682870161179f565b925050604061182d86828701611742565b9150509250925092565b60006020828403121561184c5761184c600080fd5b6000610ce8848461179f565b634e487b7160e01b600052604160045260246000fd5b601f19601f830116810181811067ffffffffffffffff8211171561189457611894611858565b6040525050565b60006118a660405190565b90506118b2828261186e565b919050565b600067ffffffffffffffff8211156118d1576118d1611858565b601f19601f83011660200192915050565b82818337506000910152565b60006119016118fc846118b7565b61189b565b90508281526020810184848401111561191c5761191c600080fd5b6119278482856118e2565b509392505050565b600082601f83011261194357611943600080fd5b8135610ce88482602086016118ee565b6000806040838503121561196957611969600080fd5b6000611975858561179f565b925050602083013567ffffffffffffffff81111561199557611995600080fd5b6117dd8582860161192f565b806116b9565b6020810161051082846119a1565b600080600080608085870312156119ce576119ce600080fd5b60006119da878761179f565b945050602085013567ffffffffffffffff8111156119fa576119fa600080fd5b611a068782880161192f565b935050604085013567ffffffffffffffff811115611a2657611a26600080fd5b611a328782880161192f565b925050606085013567ffffffffffffffff811115611a5257611a52600080fd5b611a5e8782880161192f565b91505092959194509250565b80151561167e565b803561051081611a6a565b60008060408385031215611a9357611a93600080fd5b6000611a9f858561179f565b92505060206117dd85828601611a72565b60008060008060808587031215611ac957611ac9600080fd5b6000611ad5878761179f565b9450506020611ae68782880161179f565b9350506040611a3287828801611742565b60008060408385031215611b0d57611b0d600080fd5b6000611b19858561179f565b92505060206117dd8582860161179f565b634e487b7160e01b600052602260045260246000fd5b600281046001821680611b5457607f821691505b60208210811415611b6757611b67611b2a565b50919050565b60218152602081017f4552433732313a20617070726f76616c20746f2063757272656e74206f776e6581527f7200000000000000000000000000000000000000000000000000000000000000602082015290505b60400190565b6020808252810161051081611b6d565b603e8152602081017f4552433732313a20617070726f76652063616c6c6572206973206e6f7420746f81527f6b656e206f776e6572206e6f7220617070726f76656420666f7220616c6c000060208201529050611bc1565b6020808252810161051081611bd7565b602e8152602081017f4552433732313a2063616c6c6572206973206e6f7420746f6b656e206f776e6581527f72206e6f7220617070726f76656400000000000000000000000000000000000060208201529050611bc1565b6020808252810161051081611c3f565b602c8152602081017f46756e6374696f6e206d7573742062652063616c6c6564207468726f7567682081527f64656c656761746563616c6c000000000000000000000000000000000000000060208201529050611bc1565b6020808252810161051081611ca7565b602c8152602081017f46756e6374696f6e206d7573742062652063616c6c6564207468726f7567682081527f6163746976652070726f7879000000000000000000000000000000000000000060208201529050611bc1565b6020808252810161051081611d0f565b60388152602081017f555550535570677261646561626c653a206d757374206e6f742062652063616c81527f6c6564207468726f7567682064656c656761746563616c6c000000000000000060208201529050611bc1565b6020808252810161051081611d77565b602e8152602081017f496e697469616c697a61626c653a20636f6e747261637420697320616c72656181527f647920696e697469616c697a656400000000000000000000000000000000000060208201529050611bc1565b6020808252810161051081611ddf565b600060ff8216610510565b6116b981611e47565b602081016105108284611e52565b60188152602081017f4552433732313a20696e76616c696420746f6b656e2049440000000000000000815290505b60200190565b6020808252810161051081611e69565b60298152602081017f4552433732313a2061646472657373207a65726f206973206e6f74206120766181527f6c6964206f776e6572000000000000000000000000000000000000000000000060208201529050611bc1565b6020808252810161051081611ead565b6000611f1f825190565b611f2d8185602086016116cd565b9290920192915050565b611f418184611f15565b9050610b5b8183611f15565b60008154611f5a81611b40565b600182168015611f715760018114611f8257611fb2565b60ff19831686528186019350611fb2565b60008581526020902060005b83811015611faa57815488820152600190910190602001611f8e565b505081860193505b50505092915050565b611fc58183611f4d565b7f73746f726566726f6e740000000000000000000000000000000000000000000081529050600a8101610510565b60268152602081017f4f776e61626c653a206e6577206f776e657220697320746865207a65726f206181527f646472657373000000000000000000000000000000000000000000000000000060208201529050611bc1565b6020808252810161051081611ff3565b60258152602081017f4552433732313a207472616e736665722066726f6d20696e636f72726563742081527f6f776e657200000000000000000000000000000000000000000000000000000060208201529050611bc1565b602080825281016105108161205b565b60248152602081017f4552433732313a207472616e7366657220746f20746865207a65726f2061646481527f726573730000000000000000000000000000000000000000000000000000000060208201529050611bc1565b60208082528101610510816120c3565b634e487b7160e01b600052601160045260246000fd5b6000828210156121535761215361212b565b500390565b6000821982111561216b5761216b61212b565b500190565b80516105108161173c565b60006020828403121561219057612190600080fd5b6000610ce88484612170565b602e8152602081017f45524331393637557067726164653a206e657720696d706c656d656e7461746981527f6f6e206973206e6f74205555505300000000000000000000000000000000000060208201529050611bc1565b602080825281016105108161219c565b60298152602081017f45524331393637557067726164653a20756e737570706f727465642070726f7881527f6961626c6555554944000000000000000000000000000000000000000000000060208201529050611bc1565b6020808252810161051081612204565b602b8152602081017f496e697469616c697a61626c653a20636f6e7472616374206973206e6f74206981527f6e697469616c697a696e6700000000000000000000000000000000000000000060208201529050611bc1565b602080825281016105108161226c565b60208082527f4f776e61626c653a2063616c6c6572206973206e6f7420746865206f776e65729101908152611e97565b60208082528101610510816122d4565b60198152602081017f4552433732313a20617070726f766520746f2063616c6c65720000000000000081529050611e97565b6020808252810161051081612314565b60328152602081017f4552433732313a207472616e7366657220746f206e6f6e20455243373231526581527f63656976657220696d706c656d656e746572000000000000000000000000000060208201529050611bc1565b6020808252810161051081612356565b60007fffffffffffffffffffffffffffffffffffffffffffffffffffffffffffffffff8214156123f0576123f061212b565b5060010190565b634e487b7160e01b600052601260045260246000fd5b60008261241c5761241c6123f7565b500490565b600082612430576124306123f7565b500690565b634e487b7160e01b600052603260045260246000fd5b602d8152602081017f455243313936373a206e657720696d706c656d656e746174696f6e206973206e81527f6f74206120636f6e74726163740000000000000000000000000000000000000060208201529050611bc1565b602080825281016105108161244b565b608081016124c1828761177f565b6124ce602083018661177f565b6124db60408301856119a1565b81810360608301526124ed81846116f9565b9695505050505050565b80516105108161165a565b60006020828403121561251757612517600080fd5b6000610ce884846124f7565b60268152602081017f416464726573733a2064656c65676174652063616c6c20746f206e6f6e2d636f81527f6e7472616374000000000000000000000000000000000000000000000000000060208201529050611bc1565b6020808252810161051081612523565b6105108183611f1556fe416464726573733a206c6f772d6c6576656c2064656c65676174652063616c6c206661696c6564a2646970667358221220c04d955453fc2d78d4f61b23194ec590b7bd99f72d651983f82d23abe11db3b964736f6c634300080a0033416464726573733a206c6f772d6c6576656c2064656c65676174652063616c6c206661696c6564a2646970667358221220ed86887523f9cd151ac5b37d98902e9d7c3f0b4bec33136a1b4b5649f21245da64736f6c634300080a0033",
  "linkReferences": {},
  "deployedLinkReferences": {}
}